{
  "contractName": "ConsumerRole",
  "abi": [
    {
      "inputs": [],
      "stateMutability": "nonpayable",
      "type": "constructor"
    },
    {
      "anonymous": false,
      "inputs": [
        {
          "indexed": false,
          "internalType": "address",
          "name": "account",
          "type": "address"
        }
      ],
      "name": "ConsumerAdded",
      "type": "event"
    },
    {
      "anonymous": false,
      "inputs": [
        {
          "indexed": false,
          "internalType": "address",
          "name": "account",
          "type": "address"
        }
      ],
      "name": "ConsumerRemoved",
      "type": "event"
    },
    {
      "inputs": [
        {
          "internalType": "address",
          "name": "account",
          "type": "address"
        }
      ],
      "name": "isConsumer",
      "outputs": [
        {
          "internalType": "bool",
          "name": "",
          "type": "bool"
        }
      ],
      "stateMutability": "view",
      "type": "function",
      "constant": true
    },
    {
      "inputs": [
        {
          "internalType": "address",
          "name": "account",
          "type": "address"
        }
      ],
      "name": "addConsumer",
      "outputs": [],
      "stateMutability": "nonpayable",
      "type": "function"
    },
    {
      "inputs": [
        {
          "internalType": "address",
          "name": "account",
          "type": "address"
        }
      ],
      "name": "renounceConsumer",
      "outputs": [],
      "stateMutability": "nonpayable",
      "type": "function"
    }
  ],
  "bytecode": "0x608060405234801561001057600080fd5b506100203361002560201b60201c565b610217565b61003d81600061007760201b6100f51790919060201c565b7f28b26e7a3d20aedbc5f8f2ebf7da671c0491723a2b78f47a097b0e46dee071428160405161006c91906101ca565b60405180910390a150565b600073ffffffffffffffffffffffffffffffffffffffff168173ffffffffffffffffffffffffffffffffffffffff1614156100b157600080fd5b6100c1828261012960201b60201c565b156100cb57600080fd5b60018260000160008373ffffffffffffffffffffffffffffffffffffffff1673ffffffffffffffffffffffffffffffffffffffff16815260200190815260200160002060006101000a81548160ff0219169083151502179055505050565b60008073ffffffffffffffffffffffffffffffffffffffff168273ffffffffffffffffffffffffffffffffffffffff16141561016457600080fd5b8260000160008373ffffffffffffffffffffffffffffffffffffffff1673ffffffffffffffffffffffffffffffffffffffff16815260200190815260200160002060009054906101000a900460ff16905092915050565b6101c4816101e5565b82525050565b60006020820190506101df60008301846101bb565b92915050565b60006101f0826101f7565b9050919050565b600073ffffffffffffffffffffffffffffffffffffffff82169050919050565b610497806102266000396000f3fe608060405234801561001057600080fd5b50600436106100415760003560e01c8063112940f914610046578063834ff73914610062578063f487d48d14610092575b600080fd5b610060600480360381019061005b919061038f565b6100ae565b005b61007c6004803603810190610077919061038f565b6100cc565b60405161008991906103f1565b60405180910390f35b6100ac60048036038101906100a7919061038f565b6100e9565b005b6100b7336100cc565b6100c057600080fd5b6100c9816101a1565b50565b60006100e28260006101ef90919063ffffffff16565b9050919050565b6100f281610281565b50565b600073ffffffffffffffffffffffffffffffffffffffff168173ffffffffffffffffffffffffffffffffffffffff16141561012f57600080fd5b61013982826101ef565b1561014357600080fd5b60018260000160008373ffffffffffffffffffffffffffffffffffffffff1673ffffffffffffffffffffffffffffffffffffffff16815260200190815260200160002060006101000a81548160ff0219169083151502179055505050565b6101b58160006100f590919063ffffffff16565b7f28b26e7a3d20aedbc5f8f2ebf7da671c0491723a2b78f47a097b0e46dee07142816040516101e491906103d6565b60405180910390a150565b60008073ffffffffffffffffffffffffffffffffffffffff168273ffffffffffffffffffffffffffffffffffffffff16141561022a57600080fd5b8260000160008373ffffffffffffffffffffffffffffffffffffffff1673ffffffffffffffffffffffffffffffffffffffff16815260200190815260200160002060009054906101000a900460ff16905092915050565b6102958160006102cf90919063ffffffff16565b7fe3f5ed5f263f1f01764a96edfc7d025f511ec5f7d180e8816908b78bcf74f098816040516102c491906103d6565b60405180910390a150565b600073ffffffffffffffffffffffffffffffffffffffff168173ffffffffffffffffffffffffffffffffffffffff16141561030957600080fd5b61031382826101ef565b61031c57600080fd5b60008260000160008373ffffffffffffffffffffffffffffffffffffffff1673ffffffffffffffffffffffffffffffffffffffff16815260200190815260200160002060006101000a81548160ff0219169083151502179055505050565b6000813590506103898161044a565b92915050565b6000602082840312156103a157600080fd5b60006103af8482850161037a565b91505092915050565b6103c18161040c565b82525050565b6103d08161041e565b82525050565b60006020820190506103eb60008301846103b8565b92915050565b600060208201905061040660008301846103c7565b92915050565b60006104178261042a565b9050919050565b60008115159050919050565b600073ffffffffffffffffffffffffffffffffffffffff82169050919050565b6104538161040c565b811461045e57600080fd5b5056fea264697066735822122077bf554baed32d3b633dee59413ff446d14e485cb6c975e85aebe505f634fddd64736f6c63430008040033",
  "immutableReferences": {},
  "source": "// SPDX-License-Identifier: MIT\r\npragma solidity ^0.8.0;\r\n\r\n// Import the library 'Roles'\r\nimport \"./Roles.sol\";\r\n\r\n// Define a contract 'ConsumerRole' to manage this role - add, remove, check\r\ncontract ConsumerRole {\r\n    using Roles for Roles.Role;\r\n\r\n    // Define 2 events, one for Adding, and other for Removing\r\n    event ConsumerAdded(address account);\r\n    event ConsumerRemoved(address account);\r\n\r\n    // Define a struct 'consumers' by inheriting from 'Roles' library, struct Role\r\n    Roles.Role consumers;\r\n\r\n    // In the constructor make the address that deploys this contract the 1st consumer\r\n    constructor() {\r\n        _addConsumer(msg.sender);\r\n    }\r\n\r\n    // Define a modifier that checks to see if msg.sender has the appropriate role\r\n    modifier onlyConsumer() {\r\n        require(isConsumer(msg.sender));\r\n        _;\r\n    }\r\n\r\n    // Define a function 'isConsumer' to check this role\r\n    function isConsumer(address account) public view returns (bool) {\r\n        return consumers.has(account);\r\n    }\r\n\r\n    // Define a function 'addConsumer' that adds this role\r\n    function addConsumer(address account) public onlyConsumer {\r\n        _addConsumer(account);\r\n    }\r\n\r\n    // Define a function 'renounceConsumer' to renounce this role\r\n    function renounceConsumer(address account) public {\r\n        _removeConsumer(account);\r\n    }\r\n\r\n    // Define an internal function '_addConsumer' to add this role, called by 'addConsumer'\r\n    function _addConsumer(address account) internal {\r\n        consumers.add(account);\r\n        emit ConsumerAdded(account);\r\n    }\r\n\r\n    // Define an internal function '_removeConsumer' to remove this role, called by 'removeConsumer'\r\n    function _removeConsumer(address account) internal {\r\n        consumers.remove(account);\r\n        emit ConsumerRemoved(account);\r\n    }\r\n}\r\n",
  "sourcePath": "/mnt/c/Users/n-bar/Desktop/nd1309-Project-6b-Example-Template/project-6/contracts/coffeeaccesscontrol/ConsumerRole.sol",
  "compiler": {
    "name": "solc",
    "version": "0.8.4+commit.c7e474f2.Emscripten.clang"
  },
  "schemaVersion": "3.3.4",
  "updatedAt": "2021-04-24T07:41:10.106Z",
  "networkType": "ethereum",
  "devdoc": {
    "kind": "dev",
    "methods": {},
    "version": 1
  },
  "userdoc": {
    "kind": "user",
    "methods": {},
    "version": 1
  }
}