{
  "contractName": "RetailerRole",
  "abi": [
    {
      "inputs": [],
      "stateMutability": "nonpayable",
      "type": "constructor"
    },
    {
      "anonymous": false,
      "inputs": [
        {
          "indexed": true,
          "internalType": "address",
          "name": "account",
          "type": "address"
        }
      ],
      "name": "RetailerAdded",
      "type": "event"
    },
    {
      "anonymous": false,
      "inputs": [
        {
          "indexed": true,
          "internalType": "address",
          "name": "account",
          "type": "address"
        }
      ],
      "name": "RetailerRemoved",
      "type": "event"
    },
    {
      "inputs": [
        {
          "internalType": "address",
          "name": "account",
          "type": "address"
        }
      ],
      "name": "isRetailer",
      "outputs": [
        {
          "internalType": "bool",
          "name": "",
          "type": "bool"
        }
      ],
      "stateMutability": "view",
      "type": "function",
      "constant": true
    },
    {
      "inputs": [
        {
          "internalType": "address",
          "name": "account",
          "type": "address"
        }
      ],
      "name": "addRetailer",
      "outputs": [],
      "stateMutability": "nonpayable",
      "type": "function"
    },
    {
      "inputs": [],
      "name": "renounceRetailer",
      "outputs": [],
      "stateMutability": "nonpayable",
      "type": "function"
    }
  ],
  "bytecode": "0x608060405234801561001057600080fd5b506100203361002560201b60201c565b6101c7565b61003d81600061008360201b6100e21790919060201c565b8073ffffffffffffffffffffffffffffffffffffffff167f71ae26cad02663e3d92efd6ec56031a80d74a20c0ab4183faa8bf262261c9baa60405160405180910390a250565b600073ffffffffffffffffffffffffffffffffffffffff168173ffffffffffffffffffffffffffffffffffffffff1614156100bd57600080fd5b6100cd828261013560201b60201c565b156100d757600080fd5b60018260000160008373ffffffffffffffffffffffffffffffffffffffff1673ffffffffffffffffffffffffffffffffffffffff16815260200190815260200160002060006101000a81548160ff0219169083151502179055505050565b60008073ffffffffffffffffffffffffffffffffffffffff168273ffffffffffffffffffffffffffffffffffffffff16141561017057600080fd5b8260000160008373ffffffffffffffffffffffffffffffffffffffff1673ffffffffffffffffffffffffffffffffffffffff16815260200190815260200160002060009054906101000a900460ff16905092915050565b610472806101d66000396000f3fe608060405234801561001057600080fd5b50600436106100415760003560e01c80635da09b88146100465780638ec4f50514610076578063db0e6a2f14610092575b600080fd5b610060600480360381019061005b9190610394565b61009c565b60405161006d91906103cc565b60405180910390f35b610090600480360381019061008b9190610394565b6100b9565b005b61009a6100d7565b005b60006100b282600061018e90919063ffffffff16565b9050919050565b6100c23361009c565b6100cb57600080fd5b6100d481610220565b50565b6100e03361027a565b565b600073ffffffffffffffffffffffffffffffffffffffff168173ffffffffffffffffffffffffffffffffffffffff16141561011c57600080fd5b610126828261018e565b1561013057600080fd5b60018260000160008373ffffffffffffffffffffffffffffffffffffffff1673ffffffffffffffffffffffffffffffffffffffff16815260200190815260200160002060006101000a81548160ff0219169083151502179055505050565b60008073ffffffffffffffffffffffffffffffffffffffff168273ffffffffffffffffffffffffffffffffffffffff1614156101c957600080fd5b8260000160008373ffffffffffffffffffffffffffffffffffffffff1673ffffffffffffffffffffffffffffffffffffffff16815260200190815260200160002060009054906101000a900460ff16905092915050565b6102348160006100e290919063ffffffff16565b8073ffffffffffffffffffffffffffffffffffffffff167f71ae26cad02663e3d92efd6ec56031a80d74a20c0ab4183faa8bf262261c9baa60405160405180910390a250565b61028e8160006102d490919063ffffffff16565b8073ffffffffffffffffffffffffffffffffffffffff167fdb7176e79cffef81cb01767dd0447a0b24bb72ca9778d4b245581086b2a7e6db60405160405180910390a250565b600073ffffffffffffffffffffffffffffffffffffffff168173ffffffffffffffffffffffffffffffffffffffff16141561030e57600080fd5b610318828261018e565b61032157600080fd5b60008260000160008373ffffffffffffffffffffffffffffffffffffffff1673ffffffffffffffffffffffffffffffffffffffff16815260200190815260200160002060006101000a81548160ff0219169083151502179055505050565b60008135905061038e81610425565b92915050565b6000602082840312156103a657600080fd5b60006103b48482850161037f565b91505092915050565b6103c6816103f9565b82525050565b60006020820190506103e160008301846103bd565b92915050565b60006103f282610405565b9050919050565b60008115159050919050565b600073ffffffffffffffffffffffffffffffffffffffff82169050919050565b61042e816103e7565b811461043957600080fd5b5056fea2646970667358221220140b02e8d68b515503d2db051cf2a0b2ceedbb480b9e89b67213e8969d88c51d64736f6c63430008040033",
  "immutableReferences": {},
  "source": "// SPDX-License-Identifier: MIT\r\npragma solidity ^0.8.0;\r\n\r\n// Import the library 'Roles'\r\nimport \"./Roles.sol\";\r\n\r\n// Define a contract 'RetailerRole' to manage this role - add, remove, check\r\ncontract RetailerRole {\r\n    using Roles for Roles.Role;\r\n\r\n    // Define 2 events, one for Adding, and other for Removing\r\n    event RetailerAdded(address indexed account);\r\n    event RetailerRemoved(address indexed account);\r\n\r\n    // Define a struct 'retailers' by inheriting from 'Roles' library, struct Role\r\n    Roles.Role private retailers;\r\n\r\n    // In the constructor make the address that deploys this contract the 1st retailer\r\n    constructor() {\r\n        _addRetailer(msg.sender);\r\n    }\r\n\r\n    // Define a modifier that checks to see if msg.sender has the appropriate role\r\n    modifier onlyRetailer() {\r\n        require(isRetailer(msg.sender));\r\n        _;\r\n    }\r\n\r\n    // Define a function 'isRetailer' to check this role\r\n    function isRetailer(address account) public view returns (bool) {\r\n        return retailers.has(account);\r\n    }\r\n\r\n    // Define a function 'addRetailer' that adds this role\r\n    function addRetailer(address account) public onlyRetailer {\r\n        _addRetailer(account);\r\n    }\r\n\r\n    // Define a function 'renounceRetailer' to renounce this role\r\n    function renounceRetailer() public {\r\n        _removeRetailer(msg.sender);\r\n    }\r\n\r\n    // Define an internal function '_addRetailer' to add this role, called by 'addRetailer'\r\n    function _addRetailer(address account) internal {\r\n        retailers.add(account);\r\n        emit RetailerAdded(account);\r\n    }\r\n\r\n    // Define an internal function '_removeRetailer' to remove this role, called by 'removeRetailer'\r\n    function _removeRetailer(address account) internal {\r\n        retailers.remove(account);\r\n        emit RetailerRemoved(account);\r\n    }\r\n}\r\n",
  "sourcePath": "/mnt/c/Users/n-bar/Desktop/nd1309-Project-6b-Example-Template/project-6/contracts/coffeeaccesscontrol/RetailerRole.sol",
  "compiler": {
    "name": "solc",
    "version": "0.8.4+commit.c7e474f2.Emscripten.clang"
  },
  "schemaVersion": "3.3.4",
  "updatedAt": "2021-04-24T07:41:10.100Z",
  "networkType": "ethereum",
  "devdoc": {
    "kind": "dev",
    "methods": {},
    "version": 1
  },
  "userdoc": {
    "kind": "user",
    "methods": {},
    "version": 1
  }
}