{
  "contractName": "SupplyChain",
  "abi": [
    {
      "inputs": [],
      "stateMutability": "payable",
      "type": "constructor",
      "payable": true
    },
    {
      "anonymous": false,
      "inputs": [
        {
          "indexed": false,
          "internalType": "address",
          "name": "account",
          "type": "address"
        }
      ],
      "name": "ConsumerAdded",
      "type": "event"
    },
    {
      "anonymous": false,
      "inputs": [
        {
          "indexed": false,
          "internalType": "address",
          "name": "account",
          "type": "address"
        }
      ],
      "name": "ConsumerRemoved",
      "type": "event"
    },
    {
      "anonymous": false,
      "inputs": [
        {
          "indexed": false,
          "internalType": "address",
          "name": "account",
          "type": "address"
        }
      ],
      "name": "DistributorAdded",
      "type": "event"
    },
    {
      "anonymous": false,
      "inputs": [
        {
          "indexed": false,
          "internalType": "address",
          "name": "account",
          "type": "address"
        }
      ],
      "name": "DistributorRemoved",
      "type": "event"
    },
    {
      "anonymous": false,
      "inputs": [
        {
          "indexed": true,
          "internalType": "address",
          "name": "account",
          "type": "address"
        }
      ],
      "name": "FarmerAdded",
      "type": "event"
    },
    {
      "anonymous": false,
      "inputs": [
        {
          "indexed": true,
          "internalType": "address",
          "name": "account",
          "type": "address"
        }
      ],
      "name": "FarmerRemoved",
      "type": "event"
    },
    {
      "anonymous": false,
      "inputs": [
        {
          "indexed": false,
          "internalType": "uint256",
          "name": "upc",
          "type": "uint256"
        }
      ],
      "name": "ForSale",
      "type": "event"
    },
    {
      "anonymous": false,
      "inputs": [
        {
          "indexed": false,
          "internalType": "uint256",
          "name": "upc",
          "type": "uint256"
        }
      ],
      "name": "Harvested",
      "type": "event"
    },
    {
      "anonymous": false,
      "inputs": [
        {
          "indexed": false,
          "internalType": "uint256",
          "name": "upc",
          "type": "uint256"
        }
      ],
      "name": "Packed",
      "type": "event"
    },
    {
      "anonymous": false,
      "inputs": [
        {
          "indexed": false,
          "internalType": "uint256",
          "name": "upc",
          "type": "uint256"
        }
      ],
      "name": "Processed",
      "type": "event"
    },
    {
      "anonymous": false,
      "inputs": [
        {
          "indexed": false,
          "internalType": "uint256",
          "name": "upc",
          "type": "uint256"
        }
      ],
      "name": "Purchased",
      "type": "event"
    },
    {
      "anonymous": false,
      "inputs": [
        {
          "indexed": false,
          "internalType": "uint256",
          "name": "upc",
          "type": "uint256"
        }
      ],
      "name": "Received",
      "type": "event"
    },
    {
      "anonymous": false,
      "inputs": [
        {
          "indexed": true,
          "internalType": "address",
          "name": "account",
          "type": "address"
        }
      ],
      "name": "RetailerAdded",
      "type": "event"
    },
    {
      "anonymous": false,
      "inputs": [
        {
          "indexed": true,
          "internalType": "address",
          "name": "account",
          "type": "address"
        }
      ],
      "name": "RetailerRemoved",
      "type": "event"
    },
    {
      "anonymous": false,
      "inputs": [
        {
          "indexed": false,
          "internalType": "uint256",
          "name": "upc",
          "type": "uint256"
        }
      ],
      "name": "Shipped",
      "type": "event"
    },
    {
      "anonymous": false,
      "inputs": [
        {
          "indexed": false,
          "internalType": "uint256",
          "name": "upc",
          "type": "uint256"
        }
      ],
      "name": "Sold",
      "type": "event"
    },
    {
      "anonymous": false,
      "inputs": [
        {
          "indexed": true,
          "internalType": "address",
          "name": "oldOwner",
          "type": "address"
        },
        {
          "indexed": true,
          "internalType": "address",
          "name": "newOwner",
          "type": "address"
        }
      ],
      "name": "TransferOwnership",
      "type": "event"
    },
    {
      "inputs": [],
      "name": "_owner",
      "outputs": [
        {
          "internalType": "address",
          "name": "",
          "type": "address"
        }
      ],
      "stateMutability": "view",
      "type": "function",
      "constant": true
    },
    {
      "inputs": [
        {
          "internalType": "address",
          "name": "account",
          "type": "address"
        }
      ],
      "name": "addConsumer",
      "outputs": [],
      "stateMutability": "nonpayable",
      "type": "function"
    },
    {
      "inputs": [
        {
          "internalType": "address",
          "name": "account",
          "type": "address"
        }
      ],
      "name": "addDistributor",
      "outputs": [],
      "stateMutability": "nonpayable",
      "type": "function"
    },
    {
      "inputs": [
        {
          "internalType": "address",
          "name": "account",
          "type": "address"
        }
      ],
      "name": "addFarmer",
      "outputs": [],
      "stateMutability": "nonpayable",
      "type": "function"
    },
    {
      "inputs": [
        {
          "internalType": "address",
          "name": "account",
          "type": "address"
        }
      ],
      "name": "addRetailer",
      "outputs": [],
      "stateMutability": "nonpayable",
      "type": "function"
    },
    {
      "inputs": [
        {
          "internalType": "address",
          "name": "account",
          "type": "address"
        }
      ],
      "name": "isConsumer",
      "outputs": [
        {
          "internalType": "bool",
          "name": "",
          "type": "bool"
        }
      ],
      "stateMutability": "view",
      "type": "function",
      "constant": true
    },
    {
      "inputs": [
        {
          "internalType": "address",
          "name": "account",
          "type": "address"
        }
      ],
      "name": "isDistributor",
      "outputs": [
        {
          "internalType": "bool",
          "name": "",
          "type": "bool"
        }
      ],
      "stateMutability": "view",
      "type": "function",
      "constant": true
    },
    {
      "inputs": [
        {
          "internalType": "address",
          "name": "account",
          "type": "address"
        }
      ],
      "name": "isFarmer",
      "outputs": [
        {
          "internalType": "bool",
          "name": "",
          "type": "bool"
        }
      ],
      "stateMutability": "view",
      "type": "function",
      "constant": true
    },
    {
      "inputs": [],
      "name": "isOwner",
      "outputs": [
        {
          "internalType": "bool",
          "name": "",
          "type": "bool"
        }
      ],
      "stateMutability": "view",
      "type": "function",
      "constant": true
    },
    {
      "inputs": [
        {
          "internalType": "address",
          "name": "account",
          "type": "address"
        }
      ],
      "name": "isRetailer",
      "outputs": [
        {
          "internalType": "bool",
          "name": "",
          "type": "bool"
        }
      ],
      "stateMutability": "view",
      "type": "function",
      "constant": true
    },
    {
      "inputs": [
        {
          "internalType": "address",
          "name": "account",
          "type": "address"
        }
      ],
      "name": "renounceConsumer",
      "outputs": [],
      "stateMutability": "nonpayable",
      "type": "function"
    },
    {
      "inputs": [
        {
          "internalType": "address",
          "name": "account",
          "type": "address"
        }
      ],
      "name": "renounceDistributor",
      "outputs": [],
      "stateMutability": "nonpayable",
      "type": "function"
    },
    {
      "inputs": [],
      "name": "renounceFarmer",
      "outputs": [],
      "stateMutability": "nonpayable",
      "type": "function"
    },
    {
      "inputs": [],
      "name": "renounceOwnership",
      "outputs": [],
      "stateMutability": "nonpayable",
      "type": "function"
    },
    {
      "inputs": [],
      "name": "renounceRetailer",
      "outputs": [],
      "stateMutability": "nonpayable",
      "type": "function"
    },
    {
      "inputs": [
        {
          "internalType": "address",
          "name": "newOwner",
          "type": "address"
        }
      ],
      "name": "transferOwnership",
      "outputs": [],
      "stateMutability": "nonpayable",
      "type": "function"
    },
    {
      "inputs": [],
      "name": "kill",
      "outputs": [],
      "stateMutability": "nonpayable",
      "type": "function"
    },
    {
      "inputs": [
        {
          "internalType": "uint256",
          "name": "_upc",
          "type": "uint256"
        },
        {
          "internalType": "address",
          "name": "_originFarmerID",
          "type": "address"
        },
        {
          "internalType": "string",
          "name": "_originFarmerName",
          "type": "string"
        },
        {
          "internalType": "string",
          "name": "_originFarmerInformation",
          "type": "string"
        },
        {
          "internalType": "string",
          "name": "_originFarmLatitude",
          "type": "string"
        },
        {
          "internalType": "string",
          "name": "_originFarmLongitude",
          "type": "string"
        },
        {
          "internalType": "string",
          "name": "_productNotes",
          "type": "string"
        }
      ],
      "name": "harvestItem",
      "outputs": [],
      "stateMutability": "nonpayable",
      "type": "function"
    },
    {
      "inputs": [
        {
          "internalType": "uint256",
          "name": "_upc",
          "type": "uint256"
        }
      ],
      "name": "processItem",
      "outputs": [],
      "stateMutability": "nonpayable",
      "type": "function"
    },
    {
      "inputs": [
        {
          "internalType": "uint256",
          "name": "_upc",
          "type": "uint256"
        }
      ],
      "name": "packItem",
      "outputs": [],
      "stateMutability": "nonpayable",
      "type": "function"
    },
    {
      "inputs": [
        {
          "internalType": "uint256",
          "name": "_upc",
          "type": "uint256"
        },
        {
          "internalType": "uint256",
          "name": "_price",
          "type": "uint256"
        }
      ],
      "name": "sellItem",
      "outputs": [],
      "stateMutability": "nonpayable",
      "type": "function"
    },
    {
      "inputs": [
        {
          "internalType": "uint256",
          "name": "_upc",
          "type": "uint256"
        }
      ],
      "name": "buyItem",
      "outputs": [],
      "stateMutability": "payable",
      "type": "function",
      "payable": true
    },
    {
      "inputs": [
        {
          "internalType": "uint256",
          "name": "_upc",
          "type": "uint256"
        }
      ],
      "name": "shipItem",
      "outputs": [],
      "stateMutability": "nonpayable",
      "type": "function"
    },
    {
      "inputs": [
        {
          "internalType": "uint256",
          "name": "_upc",
          "type": "uint256"
        }
      ],
      "name": "receiveItem",
      "outputs": [],
      "stateMutability": "nonpayable",
      "type": "function"
    },
    {
      "inputs": [
        {
          "internalType": "uint256",
          "name": "_upc",
          "type": "uint256"
        }
      ],
      "name": "purchaseItem",
      "outputs": [],
      "stateMutability": "nonpayable",
      "type": "function"
    },
    {
      "inputs": [
        {
          "internalType": "uint256",
          "name": "_upc",
          "type": "uint256"
        }
      ],
      "name": "fetchItemBufferOne",
      "outputs": [
        {
          "internalType": "uint256",
          "name": "itemSKU",
          "type": "uint256"
        },
        {
          "internalType": "uint256",
          "name": "itemUPC",
          "type": "uint256"
        },
        {
          "internalType": "address",
          "name": "ownerID",
          "type": "address"
        },
        {
          "internalType": "address",
          "name": "originFarmerID",
          "type": "address"
        },
        {
          "internalType": "string",
          "name": "originFarmName",
          "type": "string"
        },
        {
          "internalType": "string",
          "name": "originFarmInformation",
          "type": "string"
        },
        {
          "internalType": "string",
          "name": "originFarmLatitude",
          "type": "string"
        },
        {
          "internalType": "string",
          "name": "originFarmLongitude",
          "type": "string"
        }
      ],
      "stateMutability": "view",
      "type": "function",
      "constant": true
    },
    {
      "inputs": [
        {
          "internalType": "uint256",
          "name": "_upc",
          "type": "uint256"
        }
      ],
      "name": "fetchItemBufferTwo",
      "outputs": [
        {
          "internalType": "uint256",
          "name": "itemSKU",
          "type": "uint256"
        },
        {
          "internalType": "uint256",
          "name": "itemUPC",
          "type": "uint256"
        },
        {
          "internalType": "uint256",
          "name": "productID",
          "type": "uint256"
        },
        {
          "internalType": "string",
          "name": "productNotes",
          "type": "string"
        },
        {
          "internalType": "uint256",
          "name": "productPrice",
          "type": "uint256"
        },
        {
          "internalType": "enum SupplyChain.State",
          "name": "itemState",
          "type": "uint8"
        },
        {
          "internalType": "address",
          "name": "distributorID",
          "type": "address"
        },
        {
          "internalType": "address",
          "name": "retailerID",
          "type": "address"
        },
        {
          "internalType": "address",
          "name": "consumerID",
          "type": "address"
        }
      ],
      "stateMutability": "view",
      "type": "function",
      "constant": true
    }
  ],
  "bytecode": "0x6080604052336000806101000a81548173ffffffffffffffffffffffffffffffffffffffff021916908373ffffffffffffffffffffffffffffffffffffffff16021790555060008054906101000a900473ffffffffffffffffffffffffffffffffffffffff1673ffffffffffffffffffffffffffffffffffffffff16600073ffffffffffffffffffffffffffffffffffffffff167f5c486528ec3e3f0ea91181cff8116f02bfa350e03b8b6f12e00765adbb5af85c60405160405180910390a3620000d0336200015a60201b60201c565b620000e133620001bb60201b60201c565b620000f2336200021260201b60201c565b62000103336200027360201b60201c565b33600560006101000a81548173ffffffffffffffffffffffffffffffffffffffff021916908373ffffffffffffffffffffffffffffffffffffffff1602179055506001600781905550600160068190555062000475565b62000175816001620002ca60201b62001fd51790919060201c565b8073ffffffffffffffffffffffffffffffffffffffff167f2e0ded4123377a3c2bc9a26f1717655a129e2f20752924d42e730ec89c83dbd060405160405180910390a250565b620001d6816002620002ca60201b62001fd51790919060201c565b7fddbf200aa634dc3fb81cfd68583dd1040d1c751d335e1d86b631bde3e977fea88160405162000207919062000424565b60405180910390a150565b6200022d816003620002ca60201b62001fd51790919060201c565b8073ffffffffffffffffffffffffffffffffffffffff167f71ae26cad02663e3d92efd6ec56031a80d74a20c0ab4183faa8bf262261c9baa60405160405180910390a250565b6200028e816004620002ca60201b62001fd51790919060201c565b7f28b26e7a3d20aedbc5f8f2ebf7da671c0491723a2b78f47a097b0e46dee0714281604051620002bf919062000424565b60405180910390a150565b600073ffffffffffffffffffffffffffffffffffffffff168173ffffffffffffffffffffffffffffffffffffffff1614156200030557600080fd5b6200031782826200038060201b60201c565b156200032257600080fd5b60018260000160008373ffffffffffffffffffffffffffffffffffffffff1673ffffffffffffffffffffffffffffffffffffffff16815260200190815260200160002060006101000a81548160ff0219169083151502179055505050565b60008073ffffffffffffffffffffffffffffffffffffffff168273ffffffffffffffffffffffffffffffffffffffff161415620003bc57600080fd5b8260000160008373ffffffffffffffffffffffffffffffffffffffff1673ffffffffffffffffffffffffffffffffffffffff16815260200190815260200160002060009054906101000a900460ff16905092915050565b6200041e8162000441565b82525050565b60006020820190506200043b600083018462000413565b92915050565b60006200044e8262000455565b9050919050565b600073ffffffffffffffffffffffffffffffffffffffff82169050919050565b612d7580620004856000396000f3fe60806040526004361061019c5760003560e01c80638f0c86fa116100ec578063d38ea5bf1161008a578063f2fde38b11610064578063f2fde38b14610586578063f30fc480146105af578063f487d48d146105d8578063f61c899a146106015761019c565b8063d38ea5bf1461052a578063db0e6a2f14610553578063e7fb74c71461056a5761019c565b8063b2bdfa7b116100c6578063b2bdfa7b14610470578063b94290691461049b578063bbb67db9146104d8578063bdd8a6a8146105015761019c565b80638f0c86fa146103df5780638f32d59b1461041c578063a26be999146104475761019c565b8063715018a61161015957806380c3f96d1161013357806380c3f96d1461033957806380fc0ce414610362578063834ff739146103795780638ec4f505146103b65761019c565b8063715018a6146102b55780637250e224146102cc57806377c45913146102f55761019c565b8063112940f9146101a15780632d923561146101ca57806341c0e1b5146101f357806349dae7661461020a5780635da09b881461023357806366225ff914610270575b600080fd5b3480156101ad57600080fd5b506101c860048036038101906101c3919061268a565b61062a565b005b3480156101d657600080fd5b506101f160048036038101906101ec91906127f2565b610648565b005b3480156101ff57600080fd5b50610208610827565b005b34801561021657600080fd5b50610231600480360381019061022c91906126b3565b6108ba565b005b34801561023f57600080fd5b5061025a6004803603810190610255919061268a565b610a7d565b60405161026791906128be565b60405180910390f35b34801561027c57600080fd5b50610297600480360381019061029291906126b3565b610a9a565b6040516102ac9998979695949392919061298e565b60405180910390f35b3480156102c157600080fd5b506102ca610c8c565b005b3480156102d857600080fd5b506102f360048036038101906102ee919061268a565b610d5b565b005b34801561030157600080fd5b5061031c600480360381019061031791906126b3565b610d79565b6040516103309897969594939291906128f4565b60405180910390f35b34801561034557600080fd5b50610360600480360381019061035b919061268a565b6110b8565b005b34801561036e57600080fd5b506103776110d6565b005b34801561038557600080fd5b506103a0600480360381019061039b919061268a565b6110e1565b6040516103ad91906128be565b60405180910390f35b3480156103c257600080fd5b506103dd60048036038101906103d8919061268a565b6110fe565b005b3480156103eb57600080fd5b506104066004803603810190610401919061268a565b61111c565b60405161041391906128be565b60405180910390f35b34801561042857600080fd5b50610431611139565b60405161043e91906128be565b60405180910390f35b34801561045357600080fd5b5061046e600480360381019061046991906126b3565b611190565b005b34801561047c57600080fd5b5061048561138d565b60405161049291906128a3565b60405180910390f35b3480156104a757600080fd5b506104c260048036038101906104bd919061268a565b6113b6565b6040516104cf91906128be565b60405180910390f35b3480156104e457600080fd5b506104ff60048036038101906104fa919061268a565b6113d3565b005b34801561050d57600080fd5b50610528600480360381019061052391906126dc565b6113df565b005b34801561053657600080fd5b50610551600480360381019061054c91906126b3565b6116f3565b005b34801561055f57600080fd5b506105686118f0565b005b610584600480360381019061057f91906126b3565b6118fb565b005b34801561059257600080fd5b506105ad60048036038101906105a8919061268a565b611c26565b005b3480156105bb57600080fd5b506105d660048036038101906105d191906126b3565b611c43565b005b3480156105e457600080fd5b506105ff60048036038101906105fa919061268a565b611e06565b005b34801561060d57600080fd5b50610628600480360381019061062391906126b3565b611e12565b005b610633336110e1565b61063c57600080fd5b61064581612081565b50565b610651336113b6565b61065a57600080fd5b6008600083815260200190815260200160002060020160009054906101000a900473ffffffffffffffffffffffffffffffffffffffff168073ffffffffffffffffffffffffffffffffffffffff163373ffffffffffffffffffffffffffffffffffffffff16146106c957600080fd5b8260026007811115610704577f4e487b7100000000000000000000000000000000000000000000000000000000600052602160045260246000fd5b60086000838152602001908152602001600020600b0160009054906101000a900460ff166007811115610760577f4e487b7100000000000000000000000000000000000000000000000000000000600052602160045260246000fd5b1461076a57600080fd5b600360086000868152602001908152602001600020600b0160006101000a81548160ff021916908360078111156107ca577f4e487b7100000000000000000000000000000000000000000000000000000000600052602160045260246000fd5b02179055508260086000868152602001908152602001600020600a01819055507fa96ae0fc3224ebd79eebfe54bd130cc9cb94416cddd1f2386115e00b725324688460405161081991906128d9565b60405180910390a150505050565b600560009054906101000a900473ffffffffffffffffffffffffffffffffffffffff1673ffffffffffffffffffffffffffffffffffffffff163373ffffffffffffffffffffffffffffffffffffffff1614156108b857600560009054906101000a900473ffffffffffffffffffffffffffffffffffffffff1673ffffffffffffffffffffffffffffffffffffffff16ff5b565b80600060078111156108f5577f4e487b7100000000000000000000000000000000000000000000000000000000600052602160045260246000fd5b60086000838152602001908152602001600020600b0160009054906101000a900460ff166007811115610951577f4e487b7100000000000000000000000000000000000000000000000000000000600052602160045260246000fd5b1461095b57600080fd5b6008600083815260200190815260200160002060020160009054906101000a900473ffffffffffffffffffffffffffffffffffffffff168073ffffffffffffffffffffffffffffffffffffffff163373ffffffffffffffffffffffffffffffffffffffff16146109ca57600080fd5b6109d3336113b6565b6109dc57600080fd5b600160086000858152602001908152602001600020600b0160006101000a81548160ff02191690836007811115610a3c577f4e487b7100000000000000000000000000000000000000000000000000000000600052602160045260246000fd5b02179055507f5afe3b1bf87069693c075da5c22a98d63d1aef98a30dbbe538d0781a98b77ee583604051610a7091906128d9565b60405180910390a1505050565b6000610a938260036120cf90919063ffffffff16565b9050919050565b600080600060606000806000806000600860008b8152602001908152602001600020600001549850600860008b8152602001908152602001600020600101549750600860008b8152602001908152602001600020600801549650600860008b81526020019081526020016000206009018054610b1590612bcd565b80601f0160208091040260200160405190810160405280929190818152602001828054610b4190612bcd565b8015610b8e5780601f10610b6357610100808354040283529160200191610b8e565b820191906000526020600020905b815481529060010190602001808311610b7157829003601f168201915b50505050509550600860008b8152602001908152602001600020600a01549450600860008b8152602001908152602001600020600b0160009054906101000a900460ff169350600860008b8152602001908152602001600020600b0160019054906101000a900473ffffffffffffffffffffffffffffffffffffffff169250600860008b8152602001908152602001600020600c0160009054906101000a900473ffffffffffffffffffffffffffffffffffffffff169150600860008b8152602001908152602001600020600d0160009054906101000a900473ffffffffffffffffffffffffffffffffffffffff1690509193959799909294969850565b610c94611139565b610c9d57600080fd5b600073ffffffffffffffffffffffffffffffffffffffff1660008054906101000a900473ffffffffffffffffffffffffffffffffffffffff1673ffffffffffffffffffffffffffffffffffffffff167f5c486528ec3e3f0ea91181cff8116f02bfa350e03b8b6f12e00765adbb5af85c60405160405180910390a360008060006101000a81548173ffffffffffffffffffffffffffffffffffffffff021916908373ffffffffffffffffffffffffffffffffffffffff160217905550565b610d643361111c565b610d6d57600080fd5b610d7681612161565b50565b600080600080606080606080600860008a8152602001908152602001600020600001549750600860008a8152602001908152602001600020600101549650600860008a815260200190815260200160002060020160009054906101000a900473ffffffffffffffffffffffffffffffffffffffff169550600860008a815260200190815260200160002060030160009054906101000a900473ffffffffffffffffffffffffffffffffffffffff169450600860008a81526020019081526020016000206004018054610e4a90612bcd565b80601f0160208091040260200160405190810160405280929190818152602001828054610e7690612bcd565b8015610ec35780601f10610e9857610100808354040283529160200191610ec3565b820191906000526020600020905b815481529060010190602001808311610ea657829003601f168201915b50505050509350600860008a81526020019081526020016000206005018054610eeb90612bcd565b80601f0160208091040260200160405190810160405280929190818152602001828054610f1790612bcd565b8015610f645780601f10610f3957610100808354040283529160200191610f64565b820191906000526020600020905b815481529060010190602001808311610f4757829003601f168201915b50505050509250600860008a81526020019081526020016000206006018054610f8c90612bcd565b80601f0160208091040260200160405190810160405280929190818152602001828054610fb890612bcd565b80156110055780601f10610fda57610100808354040283529160200191611005565b820191906000526020600020905b815481529060010190602001808311610fe857829003601f168201915b50505050509150600860008a8152602001908152602001600020600701805461102d90612bcd565b80601f016020809104026020016040519081016040528092919081815260200182805461105990612bcd565b80156110a65780601f1061107b576101008083540402835291602001916110a6565b820191906000526020600020905b81548152906001019060200180831161108957829003601f168201915b50505050509050919395975091939597565b6110c1336113b6565b6110ca57600080fd5b6110d3816121af565b50565b6110df33612209565b565b60006110f78260046120cf90919063ffffffff16565b9050919050565b61110733610a7d565b61111057600080fd5b61111981612263565b50565b60006111328260026120cf90919063ffffffff16565b9050919050565b60008060009054906101000a900473ffffffffffffffffffffffffffffffffffffffff1673ffffffffffffffffffffffffffffffffffffffff163373ffffffffffffffffffffffffffffffffffffffff1614905090565b80600560078111156111cb577f4e487b7100000000000000000000000000000000000000000000000000000000600052602160045260246000fd5b60086000838152602001908152602001600020600b0160009054906101000a900460ff166007811115611227577f4e487b7100000000000000000000000000000000000000000000000000000000600052602160045260246000fd5b1461123157600080fd5b61123a33610a7d565b61124357600080fd5b336008600084815260200190815260200160002060020160006101000a81548173ffffffffffffffffffffffffffffffffffffffff021916908373ffffffffffffffffffffffffffffffffffffffff1602179055503360086000848152602001908152602001600020600c0160006101000a81548173ffffffffffffffffffffffffffffffffffffffff021916908373ffffffffffffffffffffffffffffffffffffffff160217905550600660086000848152602001908152602001600020600b0160006101000a81548160ff0219169083600781111561134d577f4e487b7100000000000000000000000000000000000000000000000000000000600052602160045260246000fd5b02179055507fa8142743f8f70a4c26f3691cf4ed59718381fb2f18070ec52be1f1022d8555578260405161138191906128d9565b60405180910390a15050565b60008060009054906101000a900473ffffffffffffffffffffffffffffffffffffffff16905090565b60006113cc8260016120cf90919063ffffffff16565b9050919050565b6113dc816122bd565b50565b6113e8336113b6565b6113f157600080fd5b60075460086000898152602001908152602001600020600001819055506006546008600089815260200190815260200160002060010181905550600060086000898152602001908152602001600020600b0160006101000a81548160ff0219169083600781111561148b577f4e487b7100000000000000000000000000000000000000000000000000000000600052602160045260246000fd5b0217905550856008600089815260200190815260200160002060020160006101000a81548173ffffffffffffffffffffffffffffffffffffffff021916908373ffffffffffffffffffffffffffffffffffffffff160217905550856008600089815260200190815260200160002060030160006101000a81548173ffffffffffffffffffffffffffffffffffffffff021916908373ffffffffffffffffffffffffffffffffffffffff16021790555084600860008981526020019081526020016000206004019080519060200190611564929190612555565b508360086000898152602001908152602001600020600501908051906020019061158f929190612555565b50826008600089815260200190815260200160002060060190805190602001906115ba929190612555565b50816008600089815260200190815260200160002060070190805190602001906115e5929190612555565b5080600860008981526020019081526020016000206009019080519060200190611610929190612555565b506007548761161f9190612a94565b6008600089815260200190815260200160002060080181905550600060086000898152602001908152602001600020600b0160006101000a81548160ff02191690836007811115611699577f4e487b7100000000000000000000000000000000000000000000000000000000600052602160045260246000fd5b021790555060016007546116ad9190612a94565b6007819055507f8e55ccfc9778ff8eba1646d765cf1982537ce0f9257054a17b48aad745250183876040516116e291906128d9565b60405180910390a150505050505050565b6116fc336110e1565b61170557600080fd5b8060066007811115611740577f4e487b7100000000000000000000000000000000000000000000000000000000600052602160045260246000fd5b60086000838152602001908152602001600020600b0160009054906101000a900460ff16600781111561179c577f4e487b7100000000000000000000000000000000000000000000000000000000600052602160045260246000fd5b146117a657600080fd5b336008600084815260200190815260200160002060020160006101000a81548173ffffffffffffffffffffffffffffffffffffffff021916908373ffffffffffffffffffffffffffffffffffffffff1602179055503360086000848152602001908152602001600020600d0160006101000a81548173ffffffffffffffffffffffffffffffffffffffff021916908373ffffffffffffffffffffffffffffffffffffffff160217905550600760086000848152602001908152602001600020600b0160006101000a81548160ff021916908360078111156118b0577f4e487b7100000000000000000000000000000000000000000000000000000000600052602160045260246000fd5b02179055507f653d56639fee6b566a5c804764e9689de38645f0b733df89a36a1b7b42173dd8826040516118e491906128d9565b60405180910390a15050565b6118f93361230b565b565b6119043361111c565b61190d57600080fd5b8060036007811115611948577f4e487b7100000000000000000000000000000000000000000000000000000000600052602160045260246000fd5b60086000838152602001908152602001600020600b0160009054906101000a900460ff1660078111156119a4577f4e487b7100000000000000000000000000000000000000000000000000000000600052602160045260246000fd5b146119ae57600080fd5b60086000838152602001908152602001600020600a0154803410156119d257600080fd5b82336008600086815260200190815260200160002060020160006101000a81548173ffffffffffffffffffffffffffffffffffffffff021916908373ffffffffffffffffffffffffffffffffffffffff1602179055503360086000868152602001908152602001600020600b0160016101000a81548173ffffffffffffffffffffffffffffffffffffffff021916908373ffffffffffffffffffffffffffffffffffffffff160217905550600460086000868152602001908152602001600020600b0160006101000a81548160ff02191690836007811115611add577f4e487b7100000000000000000000000000000000000000000000000000000000600052602160045260246000fd5b02179055503373ffffffffffffffffffffffffffffffffffffffff166108fc60086000878152602001908152602001600020600a01549081150290604051600060405180830381858888f19350505050158015611b3e573d6000803e3d6000fd5b507f92f64ca637d023f354075a4be751b169c1a8a9ccb6d33cdd0cb352054399572784604051611b6e91906128d9565b60405180910390a1600060086000838152602001908152602001600020600a0154905060008134611b9f9190612aea565b905060086000848152602001908152602001600020600d0160009054906101000a900473ffffffffffffffffffffffffffffffffffffffff1673ffffffffffffffffffffffffffffffffffffffff166108fc829081150290604051600060405180830381858888f19350505050158015611c1d573d6000803e3d6000fd5b50505050505050565b611c2e611139565b611c3757600080fd5b611c4081612365565b50565b611c4c336113b6565b611c5557600080fd5b8060016007811115611c90577f4e487b7100000000000000000000000000000000000000000000000000000000600052602160045260246000fd5b60086000838152602001908152602001600020600b0160009054906101000a900460ff166007811115611cec577f4e487b7100000000000000000000000000000000000000000000000000000000600052602160045260246000fd5b14611cf657600080fd5b6008600083815260200190815260200160002060020160009054906101000a900473ffffffffffffffffffffffffffffffffffffffff168073ffffffffffffffffffffffffffffffffffffffff163373ffffffffffffffffffffffffffffffffffffffff1614611d6557600080fd5b600260086000858152602001908152602001600020600b0160006101000a81548160ff02191690836007811115611dc5577f4e487b7100000000000000000000000000000000000000000000000000000000600052602160045260246000fd5b02179055507f9b3b66e2380b690bae22c73ef1428fb0c91e72fe14a4b6defa13035214187aff83604051611df991906128d9565b60405180910390a1505050565b611e0f8161245c565b50565b8060046007811115611e4d577f4e487b7100000000000000000000000000000000000000000000000000000000600052602160045260246000fd5b60086000838152602001908152602001600020600b0160009054906101000a900460ff166007811115611ea9577f4e487b7100000000000000000000000000000000000000000000000000000000600052602160045260246000fd5b14611eb357600080fd5b611ebc3361111c565b611ec557600080fd5b6008600083815260200190815260200160002060020160009054906101000a900473ffffffffffffffffffffffffffffffffffffffff168073ffffffffffffffffffffffffffffffffffffffff163373ffffffffffffffffffffffffffffffffffffffff1614611f3457600080fd5b600560086000858152602001908152602001600020600b0160006101000a81548160ff02191690836007811115611f94577f4e487b7100000000000000000000000000000000000000000000000000000000600052602160045260246000fd5b02179055507ff00b9a5725b80c54016f42114f6ed7792d22eecb116011c4afac29c57bef6c9583604051611fc891906128d9565b60405180910390a1505050565b600073ffffffffffffffffffffffffffffffffffffffff168173ffffffffffffffffffffffffffffffffffffffff16141561200f57600080fd5b61201982826120cf565b1561202357600080fd5b60018260000160008373ffffffffffffffffffffffffffffffffffffffff1673ffffffffffffffffffffffffffffffffffffffff16815260200190815260200160002060006101000a81548160ff0219169083151502179055505050565b612095816004611fd590919063ffffffff16565b7f28b26e7a3d20aedbc5f8f2ebf7da671c0491723a2b78f47a097b0e46dee07142816040516120c491906128a3565b60405180910390a150565b60008073ffffffffffffffffffffffffffffffffffffffff168273ffffffffffffffffffffffffffffffffffffffff16141561210a57600080fd5b8260000160008373ffffffffffffffffffffffffffffffffffffffff1673ffffffffffffffffffffffffffffffffffffffff16815260200190815260200160002060009054906101000a900460ff16905092915050565b612175816002611fd590919063ffffffff16565b7fddbf200aa634dc3fb81cfd68583dd1040d1c751d335e1d86b631bde3e977fea8816040516121a491906128a3565b60405180910390a150565b6121c3816001611fd590919063ffffffff16565b8073ffffffffffffffffffffffffffffffffffffffff167f2e0ded4123377a3c2bc9a26f1717655a129e2f20752924d42e730ec89c83dbd060405160405180910390a250565b61221d8160016124aa90919063ffffffff16565b8073ffffffffffffffffffffffffffffffffffffffff167fa5e0f060af304ab17dd418c7927e3da3ae7868189bf387aee09ab179ccc572f260405160405180910390a250565b612277816003611fd590919063ffffffff16565b8073ffffffffffffffffffffffffffffffffffffffff167f71ae26cad02663e3d92efd6ec56031a80d74a20c0ab4183faa8bf262261c9baa60405160405180910390a250565b6122d18160026124aa90919063ffffffff16565b7f126174f6cf49c81cdb4a9214c6b8f037bef55b4ec31e4fc776cea2a1c8a88d598160405161230091906128a3565b60405180910390a150565b61231f8160036124aa90919063ffffffff16565b8073ffffffffffffffffffffffffffffffffffffffff167fdb7176e79cffef81cb01767dd0447a0b24bb72ca9778d4b245581086b2a7e6db60405160405180910390a250565b600073ffffffffffffffffffffffffffffffffffffffff168173ffffffffffffffffffffffffffffffffffffffff16141561239f57600080fd5b8073ffffffffffffffffffffffffffffffffffffffff1660008054906101000a900473ffffffffffffffffffffffffffffffffffffffff1673ffffffffffffffffffffffffffffffffffffffff167f5c486528ec3e3f0ea91181cff8116f02bfa350e03b8b6f12e00765adbb5af85c60405160405180910390a3806000806101000a81548173ffffffffffffffffffffffffffffffffffffffff021916908373ffffffffffffffffffffffffffffffffffffffff16021790555050565b6124708160046124aa90919063ffffffff16565b7fe3f5ed5f263f1f01764a96edfc7d025f511ec5f7d180e8816908b78bcf74f0988160405161249f91906128a3565b60405180910390a150565b600073ffffffffffffffffffffffffffffffffffffffff168173ffffffffffffffffffffffffffffffffffffffff1614156124e457600080fd5b6124ee82826120cf565b6124f757600080fd5b60008260000160008373ffffffffffffffffffffffffffffffffffffffff1673ffffffffffffffffffffffffffffffffffffffff16815260200190815260200160002060006101000a81548160ff0219169083151502179055505050565b82805461256190612bcd565b90600052602060002090601f01602090048101928261258357600085556125ca565b82601f1061259c57805160ff19168380011785556125ca565b828001600101855582156125ca579182015b828111156125c95782518255916020019190600101906125ae565b5b5090506125d791906125db565b5090565b5b808211156125f45760008160009055506001016125dc565b5090565b600061260b61260684612a47565b612a22565b90508281526020810184848401111561262357600080fd5b61262e848285612b8b565b509392505050565b60008135905061264581612d11565b92915050565b600082601f83011261265c57600080fd5b813561266c8482602086016125f8565b91505092915050565b60008135905061268481612d28565b92915050565b60006020828403121561269c57600080fd5b60006126aa84828501612636565b91505092915050565b6000602082840312156126c557600080fd5b60006126d384828501612675565b91505092915050565b600080600080600080600060e0888a0312156126f757600080fd5b60006127058a828b01612675565b97505060206127168a828b01612636565b965050604088013567ffffffffffffffff81111561273357600080fd5b61273f8a828b0161264b565b955050606088013567ffffffffffffffff81111561275c57600080fd5b6127688a828b0161264b565b945050608088013567ffffffffffffffff81111561278557600080fd5b6127918a828b0161264b565b93505060a088013567ffffffffffffffff8111156127ae57600080fd5b6127ba8a828b0161264b565b92505060c088013567ffffffffffffffff8111156127d757600080fd5b6127e38a828b0161264b565b91505092959891949750929550565b6000806040838503121561280557600080fd5b600061281385828601612675565b925050602061282485828601612675565b9150509250929050565b61283781612b1e565b82525050565b61284681612b30565b82525050565b61285581612b79565b82525050565b600061286682612a78565b6128708185612a83565b9350612880818560208601612b9a565b61288981612cec565b840191505092915050565b61289d81612b6f565b82525050565b60006020820190506128b8600083018461282e565b92915050565b60006020820190506128d3600083018461283d565b92915050565b60006020820190506128ee6000830184612894565b92915050565b60006101008201905061290a600083018b612894565b612917602083018a612894565b612924604083018961282e565b612931606083018861282e565b8181036080830152612943818761285b565b905081810360a0830152612957818661285b565b905081810360c083015261296b818561285b565b905081810360e083015261297f818461285b565b90509998505050505050505050565b6000610120820190506129a4600083018c612894565b6129b1602083018b612894565b6129be604083018a612894565b81810360608301526129d0818961285b565b90506129df6080830188612894565b6129ec60a083018761284c565b6129f960c083018661282e565b612a0660e083018561282e565b612a1461010083018461282e565b9a9950505050505050505050565b6000612a2c612a3d565b9050612a388282612bff565b919050565b6000604051905090565b600067ffffffffffffffff821115612a6257612a61612cbd565b5b612a6b82612cec565b9050602081019050919050565b600081519050919050565b600082825260208201905092915050565b6000612a9f82612b6f565b9150612aaa83612b6f565b9250827fffffffffffffffffffffffffffffffffffffffffffffffffffffffffffffffff03821115612adf57612ade612c30565b5b828201905092915050565b6000612af582612b6f565b9150612b0083612b6f565b925082821015612b1357612b12612c30565b5b828203905092915050565b6000612b2982612b4f565b9050919050565b60008115159050919050565b6000819050612b4a82612cfd565b919050565b600073ffffffffffffffffffffffffffffffffffffffff82169050919050565b6000819050919050565b6000612b8482612b3c565b9050919050565b82818337600083830152505050565b60005b83811015612bb8578082015181840152602081019050612b9d565b83811115612bc7576000848401525b50505050565b60006002820490506001821680612be557607f821691505b60208210811415612bf957612bf8612c8e565b5b50919050565b612c0882612cec565b810181811067ffffffffffffffff82111715612c2757612c26612cbd565b5b80604052505050565b7f4e487b7100000000000000000000000000000000000000000000000000000000600052601160045260246000fd5b7f4e487b7100000000000000000000000000000000000000000000000000000000600052602160045260246000fd5b7f4e487b7100000000000000000000000000000000000000000000000000000000600052602260045260246000fd5b7f4e487b7100000000000000000000000000000000000000000000000000000000600052604160045260246000fd5b6000601f19601f8301169050919050565b60088110612d0e57612d0d612c5f565b5b50565b612d1a81612b1e565b8114612d2557600080fd5b50565b612d3181612b6f565b8114612d3c57600080fd5b5056fea2646970667358221220560885aadf216344e5abb3c70c840f82f3a595b6e3e1407d4e47618d40ab262064736f6c63430008040033",
  "immutableReferences": {},
  "source": "// SPDX-License-Identifier: MIT\r\npragma solidity ^0.8.0;\r\n\r\nimport '../coffeeaccesscontrol/FarmerRole.sol';\r\nimport '../coffeeaccesscontrol/DistributorRole.sol';\r\nimport '../coffeeaccesscontrol/RetailerRole.sol';\r\nimport '../coffeeaccesscontrol/ConsumerRole.sol';\r\nimport '../coffeecore/Ownable.sol';\r\n\r\n// Define a contract 'Supplychain'\r\ncontract SupplyChain is\r\n    Ownable,\r\n    FarmerRole,\r\n    DistributorRole,\r\n    RetailerRole,\r\n    ConsumerRole\r\n{\r\n    // Define 'owner'\r\n    address owner;\r\n\r\n    // Define a variable called 'upc' for Universal Product Code (UPC)\r\n    uint256 upc;\r\n\r\n    // Define a variable called 'sku' for Stock Keeping Unit (SKU)\r\n    uint256 sku;\r\n\r\n    // Define a public mapping 'items' that maps the UPC to an Item.\r\n    mapping(uint256 => Item) items;\r\n\r\n    // Define a public mapping 'itemsHistory' that maps the UPC to an array of TxHash,\r\n    // that track its journey through the supply chain -- to be sent from DApp.\r\n    mapping(uint256 => string[]) itemsHistory;\r\n\r\n    // Define enum 'State' with the following values:\r\n    enum State {\r\n        Harvested, // 0\r\n        Processed, // 1\r\n        Packed, // 2\r\n        ForSale, // 3\r\n        Sold, // 4\r\n        Shipped, // 5\r\n        Received, // 6\r\n        Purchased // 7\r\n    }\r\n\r\n    State constant defaultState = State.Harvested;\r\n\r\n    // Define a struct 'Item' with the following fields:\r\n    struct Item {\r\n        uint256 sku; // Stock Keeping Unit (SKU)\r\n        uint256 upc; // Universal Product Code (UPC), generated by the Farmer, goes on the package, can be verified by the Consumer\r\n        address ownerID; // Metamask-Ethereum address of the current owner as the product moves through 8 stages\r\n        address originFarmerID; // Metamask-Ethereum address of the Farmer\r\n        string originFarmName; // Farmer Name\r\n        string originFarmInformation; // Farmer Information\r\n        string originFarmLatitude; // Farm Latitude\r\n        string originFarmLongitude; // Farm Longitude\r\n        uint256 productID; // Product ID potentially a combination of upc + sku\r\n        string productNotes; // Product Notes\r\n        uint256 productPrice; // Product Price\r\n        State itemState; // Product State as represented in the enum above\r\n        address distributorID; // Metamask-Ethereum address of the Distributor\r\n        address retailerID; // Metamask-Ethereum address of the Retailer\r\n        address consumerID; // Metamask-Ethereum address of the Consumer\r\n    }\r\n\r\n    // Define 8 events with the same 8 state values and accept 'upc' as input argument\r\n    event Harvested(uint256 upc);\r\n    event Processed(uint256 upc);\r\n    event Packed(uint256 upc);\r\n    event ForSale(uint256 upc);\r\n    event Sold(uint256 upc);\r\n    event Shipped(uint256 upc);\r\n    event Received(uint256 upc);\r\n    event Purchased(uint256 upc);\r\n\r\n    // A modifer that checks to see if msg.sender == owner of the contract\r\n    // modifier onlyOwner() {\r\n    //     require(msg.sender == owner);\r\n    //     _;\r\n    // }\r\n\r\n    // A modifer that verifies the Caller\r\n    modifier verifyCaller(address _address) {\r\n        require(msg.sender == _address);\r\n        _;\r\n    }\r\n\r\n    // A modifier that checks if the paid amount is sufficient to cover the price\r\n    modifier paidEnough(uint256 _price) {\r\n        require(msg.value >= _price);\r\n        _;\r\n    }\r\n\r\n    // A modifier that checks the price and refunds the remaining balance\r\n    modifier checkValue(uint256 _upc) {\r\n        _;\r\n        uint256 _price = items[_upc].productPrice;\r\n        uint256 amountToReturn = msg.value - _price;\r\n        payable(items[_upc].consumerID).transfer(amountToReturn);\r\n    }\r\n\r\n    // A modifier that checks if an item.state of a upc is Harvested\r\n    modifier harvested(uint256 _upc) {\r\n        require(items[_upc].itemState == State.Harvested);\r\n        _;\r\n    }\r\n\r\n    // A modifier that checks if an item.state of a upc is Processed\r\n    modifier processed(uint256 _upc) {\r\n        require(items[_upc].itemState == State.Processed);\r\n        _;\r\n    }\r\n\r\n    // A modifier that checks if an item.state of a upc is Packed\r\n    modifier packed(uint256 _upc) {\r\n        require(items[_upc].itemState == State.Packed);\r\n        _;\r\n    }\r\n\r\n    // A modifier that checks if an item.state of a upc is ForSale\r\n    modifier forSale(uint256 _upc) {\r\n        require(items[_upc].itemState == State.ForSale);\r\n        _;\r\n    }\r\n\r\n    // A modifier that checks if an item.state of a upc is Sold\r\n    modifier sold(uint256 _upc) {\r\n        require(items[_upc].itemState == State.Sold);\r\n        _;\r\n    }\r\n\r\n    // A modifier that checks if an item.state of a upc is Shipped\r\n    modifier shipped(uint256 _upc) {\r\n        require(items[_upc].itemState == State.Shipped);\r\n        _;\r\n    }\r\n\r\n    // A modifier that checks if an item.state of a upc is Received\r\n    modifier received(uint256 _upc) {\r\n        require(items[_upc].itemState == State.Received);\r\n        _;\r\n    }\r\n\r\n    // A modifier that checks if an item.state of a upc is Purchased\r\n    modifier purchased(uint256 _upc) {\r\n        require(items[_upc].itemState == State.Purchased);\r\n        _;\r\n    }\r\n\r\n    // In the constructor set 'owner' to the address that instantiated the contract\r\n    // and set 'sku' to 1\r\n    // and set 'upc' to 1\r\n    constructor() payable {\r\n        owner = msg.sender;\r\n        sku = 1;\r\n        upc = 1;\r\n    }\r\n\r\n    // Define a function 'kill' if required\r\n    function kill() public {\r\n        if (msg.sender == owner) {\r\n            selfdestruct(payable(owner));\r\n        }\r\n    }\r\n\r\n    // Allows a farmer to mark an item 'Harvested'\r\n    function harvestItem(\r\n        uint256 _upc,\r\n        address _originFarmerID,\r\n        string memory _originFarmerName,\r\n        string memory _originFarmerInformation,\r\n        string memory _originFarmLatitude,\r\n        string memory _originFarmLongitude,\r\n        string memory _productNotes\r\n    ) public onlyFarmer {\r\n        // Add the new item as part of Harvest\r\n        items[_upc].sku = sku;\r\n        items[_upc].upc = upc;\r\n        items[_upc].itemState = State.Harvested;\r\n        items[_upc].ownerID = _originFarmerID;\r\n        items[_upc].originFarmerID = _originFarmerID;\r\n        items[_upc].originFarmName = _originFarmerName;\r\n        items[_upc].originFarmInformation = _originFarmerInformation;\r\n        items[_upc].originFarmLatitude = _originFarmLatitude;\r\n        items[_upc].originFarmLongitude = _originFarmLongitude;\r\n        items[_upc].productNotes = _productNotes;\r\n        items[_upc].productID = _upc + sku;\r\n        items[_upc].itemState = State.Harvested;\r\n        // Increment sku\r\n        sku = sku + 1;\r\n        // Emit the appropriate event\r\n        emit Harvested(_upc);\r\n    }\r\n\r\n    // Define a function 'processtItem' that allows a farmer to mark an item 'Processed'\r\n    // Call modifier to check if upc has passed previous supply chain stage\r\n    // Call modifier to verify caller of this function\r\n    function processItem(uint256 _upc)\r\n        public\r\n        harvested(_upc)\r\n        verifyCaller(items[_upc].ownerID)\r\n        onlyFarmer\r\n    {\r\n        // Update the appropriate fields\r\n        items[_upc].itemState = State.Processed;\r\n        // Emit the appropriate event\r\n        emit Processed(_upc);\r\n    }\r\n\r\n    // Define a function 'packItem' that allows a farmer to mark an item 'Packed'\r\n    // Call modifier to check if upc has passed previous supply chain stage\r\n    // Call modifier to verify caller of this function\r\n    function packItem(uint256 _upc)\r\n        public\r\n        onlyFarmer\r\n        processed(_upc)\r\n        verifyCaller(items[_upc].ownerID)\r\n    {\r\n        // Update the appropriate fields\r\n        items[_upc].itemState = State.Packed;\r\n\r\n        // Emit the appropriate event\r\n        emit Packed(_upc);\r\n    }\r\n\r\n    // Allows a farmer to mark an item 'ForSale'\r\n    // Call modifier to check if upc has passed previous supply chain stage\r\n    // Call modifier to verify caller of this function\r\n    function sellItem(uint256 _upc, uint256 _price)\r\n        public\r\n        onlyFarmer\r\n        verifyCaller(items[_upc].ownerID)\r\n        packed(_upc)\r\n    {\r\n        // Update the appropriate fields\r\n        items[_upc].itemState = State.ForSale;\r\n        items[_upc].productPrice = _price;\r\n\r\n        // Emit the appropriate event\r\n        emit ForSale(_upc);\r\n    }\r\n\r\n    // Allows the disributor to mark an item 'Sold'\r\n    // Use the above defined modifiers to check if the item is available for sale,\r\n    // if the buyer has paid enough,\r\n    // and any excess ether sent is refunded back to the buyer\r\n    // Call modifier to check if upc has passed previous supply chain stage\r\n    // Call modifer to check if buyer has paid enough\r\n    // Call modifer to send any excess ether back to buyer\r\n    function buyItem(uint256 _upc)\r\n        public\r\n        payable\r\n        onlyDistributor\r\n        forSale(_upc)\r\n        paidEnough(items[_upc].productPrice)\r\n        checkValue(_upc)\r\n    {\r\n        // Update the appropriate fields - ownerID, distributorID, itemState\r\n        items[_upc].ownerID = msg.sender;\r\n        items[_upc].distributorID = msg.sender;\r\n        items[_upc].itemState = State.Sold;\r\n\r\n        // Transfer money to farmer\r\n        payable(msg.sender).transfer(items[_upc].productPrice);\r\n\r\n        // emit the appropriate event\r\n        emit Sold(_upc);\r\n    }\r\n\r\n    // Define a function 'shipItem' that allows the distributor to mark an item 'Shipped'\r\n    // Use the above modifers to check if the item is sold\r\n    // Call modifier to check if upc has passed previous supply chain stage\r\n    // Call modifier to verify caller of this function\r\n    function shipItem(uint256 _upc)\r\n        public\r\n        sold(_upc)\r\n        onlyDistributor\r\n        verifyCaller(items[_upc].ownerID)\r\n    {\r\n        // Update the appropriate fields\r\n        items[_upc].itemState = State.Shipped;\r\n\r\n        // emit the appropriate event\r\n        emit Shipped(_upc);\r\n    }\r\n\r\n    // Define a function 'receiveItem' that allows the retailer to mark an item 'Received'\r\n    // Use the above modifiers to check if the item is shipped\r\n    // Call modifier to check if upc has passed previous supply chain stage\r\n    // Access Control List enforced by calling Smart Contract / DApp\r\n    function receiveItem(uint256 _upc) public shipped(_upc) onlyRetailer {\r\n        // Update the appropriate fields - ownerID, retailerID, itemState\r\n        items[_upc].ownerID = msg.sender;\r\n        items[_upc].retailerID = msg.sender;\r\n        items[_upc].itemState = State.Received;\r\n\r\n        // Emit the appropriate event\r\n        emit Received(_upc);\r\n    }\r\n\r\n    // Define a function 'purchaseItem' that allows the consumer to mark an item 'Purchased'\r\n    // Use the above modifiers to check if the item is received\r\n    // Call modifier to check if upc has passed previous supply chain stage\r\n    // Access Control List enforced by calling Smart Contract / DApp\r\n    function purchaseItem(uint256 _upc) public onlyConsumer received(_upc) {\r\n        // Update the appropriate fields - ownerID, consumerID, itemState\r\n        items[_upc].ownerID = msg.sender;\r\n        items[_upc].consumerID = msg.sender;\r\n        items[_upc].itemState = State.Purchased;\r\n\r\n        // Emit the appropriate event\r\n        emit Purchased(_upc);\r\n    }\r\n\r\n    // Define a function 'fetchItemBufferOne' that fetches the data\r\n    function fetchItemBufferOne(uint256 _upc)\r\n        public\r\n        view\r\n        returns (\r\n            uint256 itemSKU,\r\n            uint256 itemUPC,\r\n            address ownerID,\r\n            address originFarmerID,\r\n            string memory originFarmName,\r\n            string memory originFarmInformation,\r\n            string memory originFarmLatitude,\r\n            string memory originFarmLongitude\r\n        )\r\n    {\r\n        // Assign values to the 8 parameters\r\n        itemSKU = items[_upc].sku;\r\n        itemUPC = items[_upc].upc;\r\n        ownerID = items[_upc].ownerID;\r\n        originFarmerID = items[_upc].originFarmerID;\r\n        originFarmName = items[_upc].originFarmName;\r\n        originFarmInformation = items[_upc].originFarmInformation;\r\n        originFarmLatitude = items[_upc].originFarmLatitude;\r\n        originFarmLongitude = items[_upc].originFarmLongitude;\r\n\r\n        return (\r\n            itemSKU,\r\n            itemUPC,\r\n            ownerID,\r\n            originFarmerID,\r\n            originFarmName,\r\n            originFarmInformation,\r\n            originFarmLatitude,\r\n            originFarmLongitude\r\n        );\r\n    }\r\n\r\n    // Define a function 'fetchItemBufferTwo' that fetches the data\r\n    function fetchItemBufferTwo(uint256 _upc)\r\n        public\r\n        view\r\n        returns (\r\n            uint256 itemSKU,\r\n            uint256 itemUPC,\r\n            uint256 productID,\r\n            string memory productNotes,\r\n            uint256 productPrice,\r\n            State itemState,\r\n            address distributorID,\r\n            address retailerID,\r\n            address consumerID\r\n        )\r\n    {\r\n        // Assign values to the 9 parameters\r\n        itemSKU = items[_upc].sku;\r\n        itemUPC = items[_upc].upc;\r\n        productID = items[_upc].productID;\r\n        productNotes = items[_upc].productNotes;\r\n        productPrice = items[_upc].productPrice;\r\n        itemState = items[_upc].itemState;\r\n        distributorID = items[_upc].distributorID;\r\n        retailerID = items[_upc].retailerID;\r\n        consumerID = items[_upc].consumerID;\r\n\r\n        return (\r\n            itemSKU,\r\n            itemUPC,\r\n            productID,\r\n            productNotes,\r\n            productPrice,\r\n            itemState,\r\n            distributorID,\r\n            retailerID,\r\n            consumerID\r\n        );\r\n    }\r\n}\r\n",
  "sourcePath": "/mnt/c/Users/n-bar/Desktop/nd1309-Project-6b-Example-Template/project-6/contracts/coffeebase/SupplyChain.sol",
  "compiler": {
    "name": "solc",
    "version": "0.8.4+commit.c7e474f2.Emscripten.clang"
  },
  "schemaVersion": "3.3.4",
  "updatedAt": "2021-04-24T07:41:10.119Z",
  "networkType": "ethereum",
  "devdoc": {
    "kind": "dev",
    "methods": {},
    "version": 1
  },
  "userdoc": {
    "kind": "user",
    "methods": {
      "_owner()": {
        "notice": "Look up the address of the owner"
      },
      "isOwner()": {
        "notice": "Check if the calling address is the owner of the contract"
      },
      "renounceOwnership()": {
        "notice": "Define a function to renounce ownerhip"
      },
      "transferOwnership(address)": {
        "notice": "Define a public function to transfer ownership"
      }
    },
    "version": 1
  }
}